:100000000C948D000C94B5000C94B5000C94B500C4
:100010000C94B5000C94B5000C94B5000C94B5008C
:100020000C94B5000C94B5000C94B5000C94B5007C
:100030000C94B5000C94B5000C94B5000C94B5006C
:100040000C94A40F0C94B5000C9478030C945203F8
:100050000C94B5000C94B5000C94B5000C94B5004C
:100060000C94AA030C94B500204641494C2100523F
:1000700054432053796E63005254432073657420B7
:100080006661696C65642100525443207365742075
:10009000746F3A20004572724A616E4665624D6126
:1000A000724170724D61794A756E4A756C4175671F
:1000B0005365704F63744E6F7644656300000000B3
:1000C00000240027002A0000000000250028002B43
:1000D000000000000023002600290004040404049A
:1000E00004040402020202020203030303030301E5
:1000F00002040810204080010204081020010204BC
:10010000081020000000080002010000030407009E
:100110000000000000000000A72011241FBECFEF48
:10012000D8E0DEBFCDBF13E0A0E0B1E0E2E9F3E448
:1001300002C005900D92AA3EB107D9F725E0AAEEBC
:10014000B3E001C01D92A13DB207E1F710E0CDE898
:10015000D0E004C02197FE010E94BC21CC38D10719
:10016000C9F70E94EE0F0C94C7210C940000CF92A7
:10017000DF92EF92FF920F931F93CF93DF936C0167
:100180007A018B01C0E0D0E0CE15DF0581F0D80107
:100190006D918D01D601ED91FC910190F081E02DE2
:1001A000C6010995892B11F02196EECF7E01C7017A
:1001B000DF91CF911F910F91FF90EF90DF90CF9043
:1001C0000895FC01538D448D252F30E0842F90E05D
:1001D000821B930B541710F0CF9608950197089542
:1001E000FC01918D828D981761F0828DDF01A80F3F
:1001F000B11D5D968C91928D9F5F9F73928F90E061
:1002000008958FEF9FEF0895FC01918D828D9817CF
:1002100031F0828DE80FF11D858D90E008958FEF0C
:100220009FEF0895FC01918D228D892F90E0805CD5
:100230009F4F821B91098F73992708958CEF94E04B
:100240000E94120121E0892B09F420E0822F0895F9
:10025000FC01848DDF01A80FB11DA35ABF4F2C9163
:10026000848D90E001968F739927848FA689B78932
:100270002C93A089B1898C91837080648C93938D29
:10028000848D981306C00288F389E02D80818F7DCC
:1002900080830895EF92FF920F931F93CF93DF9384
:1002A000EC0181E0888F9B8D8C8D981305C0E889C7
:1002B000F989808185FD26C0F62E0B8D10E00F5F39
:1002C0001F4F0F731127E02E8C8DE8120CC00FB654
:1002D00007FCFACFE889F989808185FFF5CFCE0147
:1002E0000E942801F1CF8B8DFE01E80FF11DE35A2A
:1002F000FF4FF0829FB7F8940B8FEA89FB898081CA
:1003000080620AC09FB7F894EE89FF896083E8890C
:10031000F98980818370806480839FBF81E090E051
:10032000DF91CF911F910F91FF90EF900895CF93A0
:10033000DF93EC01888D8823C9F0EA89FB898081ED
:1003400085FD05C0A889B9898C9186FD0FC00FB6BF
:1003500007FCF5CF808185FFF2CFA889B9898C9100
:1003600085FFEDCFCE010E942801E7CFDF91CF912D
:10037000089580E090E0892B29F00E941E018111F0
:100380000C940000089585ED8093BC008091BC0022
:1003900084FDFCCF10929F05089540915F04262FA5
:1003A00030E0240F311D21323105DCF420919F050E
:1003B0002430C9F4FC0180E090E0861758F43091B5
:1003C0005F042191DC01A15CBB4FA30FB11D2C93F5
:1003D0000196F3CF80915F04680F60935F0480E023
:1003E000089581E0089582E008950895089508959C
:1003F000E091A3058091A205E81730F4F0E0EA56F9
:10040000FB4F808190E008958FEF9FEF08959091CA
:10041000A3058091A205981750F4E92FF0E0EA5661
:10042000FB4F208130E09F5F9093A30502C02FEF28
:100430003FEFC90108958091A20590E02091A305A6
:10044000821B91090895CF92DF92EF92FF920F9352
:100450001F93CF93DF937C01CB018A012091DA04B3
:10046000222389F0EB016B01C40ED51ECC15DD05EE
:1004700069F06991D701ED91FC910190F081E02D37
:10048000C7010995F3CF642F0E94CD01C801DF9108
:10049000CF911F910F91FF90EF90DF90CF90089533
:1004A000CF93DF931F92CDB7DEB769832091DA0433
:1004B0002223D1F02091A005203240F021E030E04D
:1004C000FC013383228380E090E015C08091A10578
:1004D000E82FF0E0E552FB4F998190838F5F809386
:1004E000A1058093A00505C061E0CE0101960E94A0
:1004F000CD0181E090E00F90DF91CF9108950895B4
:1005000080E090E00895982F92959F702AEF929F37
:10051000800D112408950E94C221CF93DF93EC0136
:1005200060E08E810E946C0D61E08E810E946C0DF6
:1005300060E08E810E946C0D8BE891E00197F1F7ED
:10054000DF91CF910895DC01ED91FC910190F08154
:10055000E02D09946115710579F0FB0101900020EF
:10056000E9F73197AF01461B570BDC01ED91FC9188
:100570000280F381E02D099480E090E008958F924D
:100580009F92AF92BF92EF92FF920F931F93CF93E0
:10059000DF93CDB7DEB7A1970FB6F894DEBF0FBEDD
:1005A000CDBF7C01FA01CB0119A2223008F42AE068
:1005B0008E010F5D1F4F822E912CA12CB12CBF01FB
:1005C000A50194010E946421F901CA010150110999
:1005D0006A3014F4605D01C0695CD8016C93232B10
:1005E000242B252B61F7B801C7010E94AA02A1960E
:1005F0000FB6F894DEBF0FBECDBFDF91CF911F9134
:100600000F91FF90EF90BF90AF909F908F900895C3
:10061000CF92DF92EF92FF920F931F93CF93DF93CE
:100620002115310581F4DC01ED91FC910190F081FF
:10063000E02D642FDF91CF911F910F91FF90EF90EC
:10064000DF90CF9009942A30310501F577FF1DC066
:100650006A017B01EC016DE20E94A3028C01442738
:100660005527BA014C195D096E097F092AE0CE01B0
:100670000E94BF02800F911FDF91CF911F910F91B8
:10068000FF90EF90DF90CF9008952AE0DF91CF9117
:100690001F910F91FF90EF90DF90CF900C94BF02CD
:1006A0000C94AA021F920F920FB60F9211242F934F
:1006B0003F934F935F936F937F938F939F93AF93EA
:1006C000BF93EF93FF938CEF94E00E942801FF917A
:1006D000EF91BF91AF919F918F917F916F915F91BA
:1006E0004F913F912F910F900FBE0F901F90189533
:1006F0001F920F920FB60F9211242F938F939F93F7
:10070000EF93FF93E0910C05F0910D058081E0914E
:100710001205F091130582FD12C09081809115059C
:100720008F5F8F7320911605821751F0E0911505A8
:10073000F0E0E450FB4F958F8093150501C0808158
:10074000FF91EF919F918F912F910F900FBE0F907E
:100750001F9018951F920F920FB60F9211242F938E
:100760003F934F935F936F937F938F939F93AF9339
:10077000BF93EF93FF938091B900887F803609F48F
:100780009CC068F5883209F45BC090F4803109F4AC
:1007900054C038F4882309F4F6C0883009F44DC0F9
:1007A000F6C0883109F44CC0803209F45DC0EFC056
:1007B000803409F468C048F4803309F455C08833A4
:1007C00009F0E5C08093D904D8C0803509F44FC042
:1007D000883509F45DC0883409F0D9C0D6C088399D
:1007E00009F4C7C0A8F4883709F467C038F488361C
:1007F00009F463C0803709F460C0C9C0883809F4BF
:10080000B8C0803909F45FC0803809F0C0C05BC04F
:10081000803B09F486C038F4803A09F466C0883A0F
:1008200009F47FC0B4C0803C09F4A7C0883C09F437
:10083000A4C0883B09F48AC0AAC08091B60410C045
:100840009091D8048091D704981770F5E091D8045E
:1008500081E08E0F8093D804F0E0E954FB4F808153
:100860008093BB0085EC86C08093D9048EC0E09154
:10087000D80481E08E0F8093D8048091BB00F0E013
:10088000E954FB4F80839091D8048091D7046EC0C7
:10089000E091D80481E08E0F8093D8048091BB0052
:1008A000F0E0E954FB4F808380919E0581116DC07B
:1008B00081E080939D0584EA61C083E080939F0579
:1008C00010928104CFCF80918104803208F051C012
:1008D000E091810481E08E0F809381048091BB00C0
:1008E000F0E0EF59FB4F8083BDCF85EC8093BC00D7
:1008F00010929F0580918104803230F4E091810450
:10090000F0E0EF59FB4F10826091810470E0E091BC
:100910009905F0919A0581E694E009951092810479
:1009200036C084E080939F051092600410925F04AB
:10093000E0919B05F0919C05099580915F048111E0
:1009400005C081E080935F0410923F04E091600451
:1009500081E08E0F80936004F0E0E15CFB4F8081CA
:100960008093BB009091600480915F04981708F415
:1009700079CF85E88093BC000AC085EC8093BC00E9
:1009800010929F0504C01092D9040E94C301FF91E8
:10099000EF91BF91AF919F918F917F916F915F91F7
:1009A0004F913F912F910F900FBE0F901F90189570
:1009B000CF92DF92EF92FF920F931F93CF93DF932B
:1009C0006C017C0187E0E80EF11CC0E0D0E0062F4E
:1009D00010E0B8010C2E02C0759567950A94E2F7F5
:1009E0006170F70181917F010E946C0D2196C430E6
:1009F000D10579F7C601DF91CF911F910F91FF903B
:100A0000EF90DF90CF900C948D02CF92DF92EF9217
:100A1000FF920F931F93CF93DF93EC01F62E642F79
:100A20008C810E946C0D8D818F3F19F060E00E94D7
:100A30006C0D8F850F2D10E084FF25C06E0187E0BF
:100A4000C80ED11CE12CF12CB8010E2C02C07595FA
:100A500067950A94E2F76170F60181916F010E9437
:100A60006C0DFFEFEF1AFF0A88E0E816F10461F75A
:100A7000CE01DF91CF911F910F91FF90EF90DF900A
:100A8000CF900C948D02B80184E0759567958A9596
:100A9000E1F7CE010E94D8046F2DCE01DF91CF91F6
:100AA0001F910F91FF90EF90DF90CF900C94D8049E
:100AB00041E00E94050581E090E008956093EE0317
:100AC0007093EF038093F0039093F103DC01CB016B
:100AD000845D9E4FAF4FBF4F8093EA039093EB032B
:100AE000A093EC03B093ED0382E090E09093F503C4
:100AF0008093F4032FB7F8948091C8059091C905AD
:100B0000A091CA05B091CB052FBF80933B04909371
:100B10003C04A0933D04B0933E0408950F931F93AB
:100B20008FB7F8940091C8051091C9052091CA05A6
:100B30003091CB058FBF40913B0450913C046091B4
:100B40003D0470913E04041B150B260B370B80915E
:100B5000EE039091EF03A091F003B091F103083EF2
:100B6000134021053105C0F00196A11DB11D8093F0
:100B7000EE039093EF03A093F003B093F103485179
:100B80005C4F6F4F7F4F40933B0450933C04609306
:100B90003D0470933E04C4CF4091EA035091EB03AF
:100BA0006091EC037091ED0384179507A607B707D2
:100BB00088F1E091F203F091F303309759F1099530
:100BC000611571058105910519F00E945E0522C02D
:100BD0008091EE039091EF03A091F003B091F103A7
:100BE000845D9E4FAF4FBF4F8093EA039093EB031A
:100BF000A093EC03B093ED0381E090E02091F40327
:100C00003091F503232B11F480E090E09093F503ED
:100C10008093F4036091EE037091EF038091F003F1
:100C20009091F1031F910F9108954F925F926F92EF
:100C30007F928F929F92AF92BF92CF92DF92EF926C
:100C4000FF920F931F93CF93DF93FC011681A12F87
:100C5000B0E020E833E341EE51E00E9495214B01E2
:100C60005C01C2EBD7E09D0104E610E080E9E82ECC
:100C7000FF24F394CE01825B974082179307D4F44C
:100C8000CE0183709927892B99F4CE01B8010E9477
:100C90005021892B31F4CE01B7010E945021892BBC
:100CA00039F480E8880E81E5981E81E0A81EB11C09
:100CB0002196E0CF4580512C2E54384FC90164E66F
:100CC00070E00E9450217C01C90160E971E00E943E
:100CD00050216C0100E011E0C1E0D0E03901A3E057
:100CE0006A227724C415D50534F5C230D10589F4BC
:100CF0006114710471F4E114F10419F4C114D10404
:100D000041F4B0E88B0EBBE39B1EB6E2AB1EB11CF8
:100D10000EC0D8018C91A82FB0E020E831E541E069
:100D200050E00E949521860E971EA81EB91E21969E
:100D30000F5F1F4FD7CF4181228130E0A0E1BEE09D
:100D40000E9486216B017C01242F30E0ACE3B0E0EF
:100D50000E948621DC01CB018C0D9D1DAE1DBF1DA7
:100D600020816C017D01C20ED11CE11CF11CA4810B
:100D7000B0E0119720E831E541E050E00E94A02169
:100D8000DC01CB018C0D9D1DAE1DBF1DBC01CD0135
:100D9000680D791D8A1D9B1DDF91CF911F910F91C9
:100DA000FF90EF90DF90CF90BF90AF909F908F908B
:100DB0007F906F905F904F900895CF93DF93CDB762
:100DC000DEB727970FB6F894DEBF0FBECDBF81E028
:100DD0008093DA0488E68093FB041092A1051092B8
:100DE000A00560E084EA95E00E94500281E00E9444
:100DF000A50C811140C067E088E60E94010D1092A9
:100E0000A3058093A20584EA95E00E9407028F77EC
:100E10000E948302898384EA95E00E9407020E946F
:100E200083028A8384EA95E00E9407028F7B0E94F6
:100E300083028B8384EA95E00E9407028C8384EA14
:100E400095E00E9407020E9483028D8384EA95E068
:100E50000E9407028F770E9483028E8384EA95E0C6
:100E60000E9407020E948302825E8F83CE01019658
:100E70000E94150603C060E070E0CB0127960FB614
:100E8000F894DEBF0FBECDBFDF91CF9108956F9272
:100E90007F928F929F92AF92BF92CF92DF92EF920A
:100EA000FF920F931F93CF93DF936B017C01EA01B5
:100EB0008CE3882E912CA12CB12CC701B601A50181
:100EC00094010E9464216883CA01B901A5019401BB
:100ED0000E9464216983C701B60120E13EE040E041
:100EE00050E00E946421CA01B90128E130E040E0ED
:100EF00050E00E9464216A83C701B60120E831E511
:100F000041E050E00E94642169017A01CA01B901FF
:100F10006C5F7F4F8F4F9F4F27E030E040E050E005
:100F20000E9464216F5F6B83812C912C540140E0FF
:100F300094E6692E712C00E911E0242F30E02E5444
:100F4000384FF901E370FF27309789F4C901B301E5
:100F50000E945021892B31F4C901B8010E9450210F
:100F6000892B29F48EE691E0A0E0B0E004C08DE684
:100F700091E0A0E0B0E0880E991EAA1EBB1ED5012C
:100F8000C401AA27BB27C816D906EA06FB0610F03B
:100F90004F5FD3CF4E83309799F4C90164E670E078
:100FA0000E945021892B39F4C90160E971E00E9447
:100FB0005021892B29F48EE691E0A0E0B0E004C036
:100FC0008DE691E0A0E0B0E0881A990AAA0ABB0A6F
:100FD000C818D908EA08FB08C90164E670E00E9455
:100FE00050218C01C90160E971E00E945021A0E00C
:100FF000B1E020E0213041F4309751F401151105A2
:1010000029F4009729F402C04C9103C04DE101C0BE
:101010004CE150E060E070E0C416D506E606F70645
:1010200040F0C41AD50AE60AF70A2F5F11962C3051
:1010300009F72F5F2D83C394CC82DF91CF911F914D
:101040000F91FF90EF90DF90CF90BF90AF909F9067
:101050008F907F906F900895CF92DF92EF92FF92E2
:10106000C0903704D0903804E0903904F0903A04EE
:10107000C616D706E806F90671F06B017C0146EF4B
:1010800053E00E944707C0923704D0923804E092A0
:101090003904F0923A04FF90EF90DF90CF900895DA
:1010A0000C9436210C942E211F93CF93DF93EC01E7
:1010B000162F0A972CF460E38CEF94E00E94A302B1
:1010C000AE01DD0F660B770B2AE030E08CEF94E089
:1010D0000E940803111644F4612F8CEF94E0DF9115
:1010E000CF911F910C94A302DF91CF911F9108958E
:1010F0000F931F93CF93DF936091110486E490E0E8
:101100000E9450086091070487E490E00E94500814
:1011100060910F0484E490E00E94500860910504FF
:1011200085E490E00E945008C5E1D4E0688183E343
:1011300090E00E94500807E114E0F801608184E328
:1011400090E00E945008609113048AE390E00E94AE
:1011500050086091190489E390E00E945008F8015A
:10116000608184E390E00E945008688183E390E00E
:101170000E94500860911B0488E390E0DF91CF91BA
:101180001F910F910C9450088F929F92AF92BF9233
:10119000CF92DF92EF92FF926B017C010E942C08AC
:1011A0008091FA0360E090E00E945408C701B60104
:1011B0000E942C088090FC03912C8EE4881A88EF02
:1011C000980A092C000CAA08BB08C701B6010E94A6
:1011D0002C082091FB0383E0289F90011124A6E8AE
:1011E000B4E080E090E0F901E80FF91FEB56FF4F03
:1011F000E491ED93019683309105A9F7109289044B
:1012000066E874E08CEF94E00E9450032AE030E03E
:10121000B501A4018CEF94E00E940803C701B60158
:101220000E942C088091FB0390E090930C04809323
:101230000B04C701B6010E942C088091FA0390E0CC
:1012400090930A048093090460E28CEF94E00E947A
:10125000A302C701B6010E942C088091F8036AE33B
:1012600090E00E945408C701B6010E942C088091AA
:10127000F7036AE390E00E945408C701B6010E9498
:101280002C088091F60360E290E00E945408C701A8
:10129000B6010E942C088091F80390E090930E0410
:1012A00080930D04C701B6010E942C088091F703BA
:1012B00090E09093020480930104C701B6010E945C
:1012C0002C088091F60390E0909300048093FF0334
:1012D000809103049091040460E0019719F580E087
:1012E0000E946A0C64E973E080EB95E00E94500371
:1012F000C701B6010E942C086091FC0370E06E5497
:10130000784F80EB95E00E949D0C61EB73E080EBE1
:1013100095E00E94500361E080E00E946A0C68E35F
:1013200072E01BC180E00E946A0C61EB73E080EB0D
:1013300095E00E94500360E081E00E946A0CC701C2
:10134000B6010E942C088091FB0390E00A9734F4C8
:1013500063E771E080EB95E00E945003C701B6019E
:101360000E942C086091FB0370E080EB95E00E94E6
:101370009D0C60E084E00E946A0CC701B6010E94E7
:101380002C088091FA0390E00A9734F463E771E047
:1013900080EB95E00E945003C701B6010E942C0823
:1013A0006091FA0370E080EB95E00E949D0C60E094
:1013B00088E00E946A0CC701B6010E942C08809147
:1013C000F80390E00A9734F463E771E080EB95E06E
:1013D0000E945003C701B6010E942C086091F803D7
:1013E00070E080EB95E00E949D0C60E08BE00E9435
:1013F0006A0CC701B6010E942C088091F70390E0A7
:101400000A9734F463E771E080EB95E00E945003A3
:10141000C701B6010E942C086091F70370E080EBD1
:1014200095E00E949D0C60E08EE00E946A0CC7016E
:10143000B6010E942C088091F60390E00A9734F4DC
:1014400063E771E080EB95E00E945003C701B601AD
:101450000E942C086091F60370E080EB95E00E94FA
:101460009D0C809103049091040460E0029781F444
:1014700083E00E946A0C60EA73E080EB95E00E94D2
:10148000500361E080E00E946A0C62EA73E005C0EC
:1014900083E00E946A0C6EE973E080EB95E00E94A5
:1014A0005003809103049091040460E0039781F459
:1014B00086E00E946A0C63EB73E080EB95E00E948B
:1014C000500361E080E00E946A0C66EB73E005C0A7
:1014D00086E00E946A0C60EB73E080EB95E00E946E
:1014E0005003809103049091040460E0049781F418
:1014F0008AE00E946A0C60EA73E080EB95E00E944B
:10150000500361E080E00E946A0C67EC73E005C064
:101510008AE00E946A0C6EE973E080EB95E00E941D
:101520005003809103049091040460E0059781F4D6
:101530008DE00E946A0C60EA73E080EB95E00E9407
:10154000500361E080E00E946A0C66ED73E005C024
:101550008DE00E946A0C6EE973E080EB95E0FF90ED
:10156000EF90DF90CF90BF90AF909F908F900C94B2
:101570005003AF92BF92CF92DF92EF92FF920F9300
:101580001F93CF93DF93CDB7DEB72E970FB6F894A6
:10159000DEBF0FBECDBF8091FD038D5C8E87809135
:1015A0000B048D87809109048C8780910D048A87B4
:1015B0008091010489878091FF038887CE01089676
:1015C0000E9415066B017C01AE014F5F5F4F0E94C8
:1015D0004707AA24A394A092DA0488E6B82EB09212
:1015E000FB041092A1051092A00560E084EA95E04A
:1015F0000E94500229811AE0822F612F0E9444210B
:10160000682F660F860F880F682F620F84EA95E0B7
:101610000E9450022A81822F612F0E944421682F4C
:10162000660F860F880F682F620F84EA95E00E948C
:1016300050022B81822F612F0E944421682F660F58
:10164000860F880F682F620F84EA95E00E9450028F
:101650006C8184EA95E00E9450022D81822F612FD7
:101660000E944421682F660F860F880F682F620F33
:1016700084EA95E00E9450022E81822F612F0E9401
:101680004421682F660F860F880F682F620F84EA47
:1016900095E00E9450022F812E51822F612F0E94CF
:1016A0004421682F660F680F660F620F84EA95E089
:1016B0000E94500281E00E94A50C182FA092DA042B
:1016C000B092FB041092A1051092A0056FE084EA8D
:1016D00095E00E94500281E00E94A50C81110DC08E
:1016E00061E088E60E94010D1092A3058093A20597
:1016F00084EA95E00E940702082F81E08093DA04D3
:1017000088E68093FB041092A1051092A0056FE07B
:1017100084EA95E00E945002602F6F7784EA95E09A
:101720000E94500281E00E94A50C11110DC0C7015A
:10173000B6010E945E0588E890E00E94820CC70115
:10174000B6010E94C40804C088E790E00E94820CA1
:101750000E947C0C0E948E050091820410918304EB
:1017600020918404309185046017710782079307E4
:1017700061F0609382047093830480938404909357
:1017800085040E94C4080E947C0C2E960FB6F89423
:10179000DEBF0FBECDBFDF91CF911F910F91FF90A4
:1017A000EF90DF90CF90BF90AF90089587E00E94B8
:1017B000430D019749F4809103049091040401962C
:1017C0009093040480930304809103049091040493
:1017D0000B9724F0109204041092030480910304E8
:1017E0009091040497FF04C0109204041092030423
:1017F00087E00E94430D0197A9F587E00E94430D01
:10180000BC018CEF94E00E949D0C61EB73E08CEFC7
:1018100094E00E94500386E00E94430DBC018CEFCF
:1018200094E00E949D0C61EB73E08CEF94E00E94C9
:10183000500385E00E94430DBC018CEF94E00E94B0
:101840009D0C61EB73E08CEF94E00E94500360917B
:101850000304709104048CEF94E00E949D0C0E949C
:101860007C0CC6CF0895833081F028F4813099F044
:101870008230A1F008958730A9F08830B9F0843023
:10188000D1F4809180008F7D03C0809180008F779C
:1018900080938000089584B58F7702C084B58F7DD2
:1018A00084BD08958091B0008F7703C08091B0000F
:1018B0008F7D8093B000089540E0682F80EB95E025
:1018C0000C94050581E00E945C0C8BE39FE101977D
:1018D000F1F70895643008F063E09091C30569174B
:1018E00010F06FEF690FE62FF0E0E055FA4F9489A2
:1018F000890F80680C945C0C67EE73E08CEF94E0C9
:101900000C94AA020F931F93CF93DF938C01C0E036
:10191000D0E0F801EC0FFD1F6491662341F08CEFDD
:1019200094E00E944A01892B11F02196F2CFCE015A
:10193000DF91CF911F910F910895AB01770F660B47
:10194000770B2AE030E00C940803282F3091A00593
:10195000313208F04AC080919F058111FCCF9091EF
:10196000FB0442E040939F0520939E052FEF2093B8
:10197000D9041092D8043093D704EBEDF4E0A7EB30
:10198000B4E020E0321721F041914D932F5FFACF60
:101990001092B6042091B604990F922B9093B6043E
:1019A00090919D05913061F410929D059091B6043F
:1019B0009093BB009091BC0093FDF8CF95EC01C0D3
:1019C00095EE9093BC0090919F059230E1F3909139
:1019D000D9049F3F79F08091D904803241F0809101
:1019E000D904803331F084E005C081E003C082E097
:1019F00001C083E01092A1051092A0051092DA04B4
:101A0000089590919F059111FCCF91E090939F05CF
:101A100090939E052FEF2093D9041092D804260F9F
:101A20002093D7049093B6049091B604880F892B25
:101A30008093B60480919D05813061F410929D05DC
:101A40008091B6048093BB008091BC0083FDF8CFE9
:101A500085EC01C085EE8093BC0080919F058130AC
:101A6000E1F38091D804861710F46091D804A7EBB5
:101A7000B4E0E6E9F4E080E0861721F09D919193CF
:101A80008F5FFACF0895CF93DF93282F30E0F901CD
:101A9000ED5FFE4F8491F901E151FF4FD491F901BF
:101AA000E552FF4FC491CC2391F081110E94330C79
:101AB000EC2FF0E0EE0FFF1FEF52FF4FA591B49116
:101AC000EC91ED2381E090E021F480E002C080E021
:101AD00090E0DF91CF9108951F93CF93DF93282F4C
:101AE00030E0F901ED5FFE4F8491F901E151FF4FC4
:101AF000D491F901E552FF4FC491CC23C1F0162FC8
:101B000081110E94330CEC2FF0E0EE0FFF1FE95320
:101B1000FF4FA591B4919FB7F894111104C08C9117
:101B2000D095D82302C0EC91DE2BDC939FBFDF91D0
:101B3000CF911F910895CF93DF9390E0FC01E15185
:101B4000FF4F2491FC01E552FF4F8491882361F1FE
:101B500090E0880F991FFC01E354FF4FC591D49189
:101B6000FC01E953FF4FA591B491611109C09FB7E2
:101B7000F8948881209582238883EC912E230BC0D2
:101B8000623061F49FB7F8948881322F30958323B7
:101B90008883EC912E2B2C939FBF06C08FB7F894AF
:101BA000E8812E2B28838FBFDF91CF910895CF93AB
:101BB000DF93823028F09091BF0598609093BF0525
:101BC0008093C3051092C40580E48093C50580E12D
:101BD0008093C60580E58093C70561E08091B405D8
:101BE0000E949B0D8091B5058F3F19F061E00E9426
:101BF0009B0D61E08091B6050E949B0DC0EBD5E086
:101C00009E01205B35408091BF0584FD03C084E0C8
:101C100090E002C088E090E02196281739072CF464
:101C200061E08E810E949B0DEBCF8BE39DE00197DD
:101C3000F1F760E08091B4050E946C0D60E0809146
:101C4000B6050E946C0D8091B5058F3F19F060E0DC
:101C50000E946C0D8091BF0584FD20C063E080EB85
:101C600095E00E94D804CBE4D6E4CE010197F1F7C9
:101C700063E080EB95E00E94D8042197F1F763E0E0
:101C800080EB95E00E94D80483E592E00197F1F79C
:101C900062E080EB95E00E94D80415C080620E944B
:101CA0005C0C8BE496E40197F1F78091BF058062AC
:101CB0000E945C0C83E592E00197F1F78091BF05EB
:101CC00080620E945C0C8091BF0580620E945C0C67
:101CD00084E08093C0058CE00E945C0C0E94620C42
:101CE00082E08093C10586E0DF91CF910C945C0C7B
:101CF0008F929F92AF92BF92CF92DF92EF92FF921C
:101D00006B017C010E947F0F4B015C01C114D10467
:101D1000E104F104F1F00E947F0FDC01CB0188198E
:101D20009909AA09BB09883E9340A105B10570F342
:101D300021E0C21AD108E108F10888EE880E83E09C
:101D4000981EA11CB11CC114D104E104F10419F7BF
:101D5000DDCFFF90EF90DF90CF90BF90AF909F903E
:101D60008F9008954F925F926F927F928F929F9281
:101D7000BF92CF92DF92EF92FF920F931F93CF9378
:101D8000DF9300D000D01F92CDB7DEB7182F198295
:101D90001A821B821C821D8261E00E949B0D60E002
:101DA000812F0E946C0D62E170E080E090E00E9463
:101DB000780E61E0812F0E946C0D8BE990E0019715
:101DC000F1F760E0812F0E949B0D51E1E52E57E273
:101DD000F52E812F0E94430D892B39F481E0E81AFA
:101DE000F108B9F78EEF9FEF75C041E1E42E47E2AD
:101DF000F42E812F0E94430D019729F481E0E81A07
:101E0000F108B9F7EFCF28E2E22EF12C07E0B12C70
:101E1000CC24C394D12C91E1892E97E2992E812F65
:101E20000E94430D892B29F481E0881A9108B9F7A3
:101E3000D9CF0E947F0F2B013C0181E1882E87E2E0
:101E4000982E812F0E94430D019729F481E0881A72
:101E50009108B9F7C7CF0E947F0FDC01CB0184192D
:101E60009509A609B7098997A105B10578F0E1E0C0
:101E7000F0E0EC0FFD1FEB0DF11D2081C601002EDF
:101E800001C0880F0A94EAF7822B8083011103C0F6
:101E9000B39407E001C0015081E0E81AF10809F0AD
:101EA000BACF2981822F90E090939304809392047B
:101EB0008B81482F50E05093950440939404280F51
:101EC00081E090E03D81231302C080E090E0919595
:101ED000819591090F900F900F900F900F90DF91C7
:101EE000CF911F910F91FF90EF90DF90CF90BF9017
:101EF0009F908F907F906F905F904F9008953FB725
:101F0000F8948091CD059091CE05A091CF05B09128
:101F1000D00526B5A89B05C02F3F19F00196A11D3D
:101F2000B11D3FBFBA2FA92F982F8827820F911D6F
:101F3000A11DB11DBC01CD0142E0660F771F881FB6
:101F4000991F4A95D1F708951F920F920FB60F92DD
:101F500011242F933F938F939F93AF93BF938091BF
:101F6000C8059091C905A091CA05B091CB053091E3
:101F7000CC0523E0230F2D3720F40196A11DB11DC0
:101F800005C026E8230F0296A11DB11D2093CC05A4
:101F90008093C8059093C905A093CA05B093CB055B
:101FA0008091CD059091CE05A091CF05B091D0053F
:101FB0000196A11DB11D8093CD059093CE05A093F0
:101FC000CF05B093D005BF91AF919F918F913F9175
:101FD0002F910F900FBE0F901F901895789484B595
:101FE000826084BD84B5816084BD85B5826085BD15
:101FF00085B5816085BD80916E00816080936E00A3
:102000001092810080918100826080938100809194
:102010008100816080938100809180008160809345
:1020200080008091B10084608093B1008091B00005
:1020300081608093B00080917A00846080937A0000
:1020400080917A00826080937A0080917A0081602A
:1020500080937A0080917A00806880937A00109251
:10206000C100E0910C05F0910D0582E08083E091C4
:102070000805F09109051082E0910A05F0910B0521
:102080008FEC808310921405E0911005F0911105FA
:1020900086E08083E0910E05F0910F0580818061DC
:1020A0008083E0910E05F0910F0580818860808328
:1020B000E0910E05F0910F05808180688083E091AA
:1020C0000E05F0910F0580818F7D80838DED96E068
:1020D0009093F3038093F2038091EE039091EF03CA
:1020E000A091F003B091F1038093EA039093EB0386
:1020F000A093EC03B093ED030E948E058FE690E071
:102100000E94820C0E948E058091F4039091F50349
:10211000029721F088E690E00E94820C0E947C0CDD
:1021200061E08EE00E949B0D61E08FE00E949B0DBC
:1021300061E080E10E949B0D61E084E00E949B0DC4
:1021400061E083E00E949B0D61E082E00E949B0DB4
:1021500060E085E00E949B0D60E086E00E949B0DA0
:1021600060E087E00E949B0D60E08EE00E946C0DB5
:1021700060E08FE00E946C0D60E080E10E946C0DD9
:1021800082E00E94D70D81E190E0909391048093CA
:1021900090040E94620C8AE390E00E94520890E052
:1021A000909314048093130486E490E00E945208F4
:1021B00090E0909312048093110487E490E00E94D1
:1021C000520890E0909308048093070484E490E020
:1021D0000E94520890E09093100480930F0485E4CD
:1021E00090E00E94520890E09093060480930504CA
:1021F00083E490E00E94520890E090932204809340
:10220000210483E390E00E94520890E0909316042A
:102210008093150484E390E00E94520890E090932C
:1022200018048093170481E090E090932604809333
:10223000250488E390E00E94520890E090931C04EB
:1022400080931B0489E390E00E94520890E09093F1
:102250001A048093190488E490E00E94520890E0E8
:10226000909324048093230460E08EE00E946C0D20
:1022700060E08FE00E946C0D60E080E10E946C0DD8
:1022800060E084E00E946C0D60E083E00E946C0DD1
:1022900060E082E00E946C0D60E080E00E946A0CC9
:1022A0006CE371E080EB95E00E94500361E080E018
:1022B0000E946A0C6DE471E080EB95E00E9450038F
:1022C00060ED77E080E090E00E94780E10921404B8
:1022D0001092130410921A041092190460ED77E022
:1022E00080E090E00E94780E78EE272E73E0372E83
:1022F000E2E04E2E512C0E94D60B0E948E05609378
:102300003304709334048093350490933604009121
:102310002F04109130042091310430913204601761
:1023200071078207930761F060932F047093300464
:1023300080933104909332040E94C4080E947C0C64
:10234000809190049091910497FF04C05092910461
:102350004092900480919004909191040E94B20E5A
:10236000809194049091950490932E0480932D0471
:10237000809192049091930490932C0480932B0469
:102380002FB7F8948091C8059091C905A091CA050E
:10239000B091CB052FBF8093270490932804A0937E
:1023A0002904B0932A0486E00E94430D019739F472
:1023B00085E00E94430D019711F40C94B41E8091A6
:1023C000190490911A04892B51F461E080E00E9475
:1023D0006A0C6EE571E080EB95E00E9450038091FD
:1023E000190490911A04019709F0A3C160E082E0FA
:1023F0000E946C0D20912D0430912E0480911104C7
:10240000909112048217930794F460E084E00E9494
:102410006C0D60E08EE00E946C0D61E087E00E9430
:102420006A0C6FE671E080EB95E00E9450038091AA
:102430001104909112042091250430912604821BEE
:10244000930B20912D0430912E042817390794F412
:1024500061E084E00E946C0D61E08EE00E946C0DF2
:1024600061E087E00E946A0C61E771E080EB95E033
:102470000E94500320912B0430912C0480910F0472
:10248000909110048217930794F460E083E00E9417
:102490006C0D60E08FE00E946C0D61E08CE00E94AA
:1024A0006A0C6FE671E080EB95E00E94500380912A
:1024B0000F04909110042091250430912604821B72
:1024C000930B20912B0430912C042817390794F496
:1024D00061E083E00E946C0D61E08FE00E946C0D72
:1024E00061E08CE00E946A0C61E771E080EB95E0AE
:1024F0000E94500361E080E00E946A0C61EB73E08F
:1025000080EB95E00E945003809115049091160491
:102510000A9734F463E771E080EB95E00E94500382
:10252000609115047091160480EB95E00E949D0C5B
:102530006EE973E080EB95E00E94500380911704F0
:10254000909118040A9734F463E771E080EB95E00A
:102550000E945003609117047091180480EB95E07D
:102560000E949D0C61EB73E080EB95E00E945003AC
:1025700061E088E00E946A0C63EE71E080EB95E018
:102580000E94500360912D0470912E0480EB95E021
:102590000E949D0C61EB73E080EB95E00E9450037C
:1025A00061E08DE00E946A0C66EE71E080EB95E0E0
:1025B0000E94500360912B0470912C0480EB95E0F5
:1025C0000E949D0C80910D0490910E049C012B7F24
:1025D000837F892B21F02031310509F04FC0809194
:1025E000230490912404892B09F048C08091190498
:1025F00090911A048130910509F040C09093240411
:102600008093230461E088E490E00E94500860E039
:1026100080E00E946A0C65E771E080EB95E00E9423
:10262000500361E080E00E946A0C66E871E080EB94
:1026300095E00E94500361E080E10E946C0D61E032
:1026400082E00E946C0D8091210490912204829D71
:10265000B001839D700D929D700D1124072E000C0A
:10266000880B990B0E94780E0E94620C60E080E15A
:102670000E946C0D60E082E00E946C0D80910D0460
:1026800090910E049C012B7F837F029721F02231D1
:10269000310509F04EC080912304909124040197E4
:1026A00009F047C08091190490911A04019709F02C
:1026B00040C0109224041092230460E088E490E06B
:1026C0000E94500861E080E10E946C0D61E082E0B0
:1026D0000E946C0D60E080E00E946A0C65E771E08A
:1026E00080EB95E00E94500361E080E00E946A0C5C
:1026F00066E871E080EB95E00E9450038091210430
:1027000090912204829DB001839D700D929D700D69
:102710001124072E000C880B990B0E94780E0E9442
:10272000620C60E080E10E946C0D60E082E00E943B
:102730006C0D209115043091160480910B0490913A
:102740000C042817390709F071C020911704309143
:1027500018048091090490910A042817390709F098
:1027600065C08091130490911404892B09F05EC018
:102770008091190490911A048130910509F056C096
:10278000909314048093130460E080E10E946C0D28
:1027900060E082E00E946C0D60911B0488E390E091
:1027A0000E94500860E080E00E946A0C67E971E0D6
:1027B00080EB95E00E94500361E080E00E946A0C8B
:1027C00068EA71E080EB95E00E94500368EB7BE0E3
:1027D00080E090E00E94780E60E080E00E946A0C49
:1027E00069EB71E080EB95E00E94500361E080E0CE
:1027F0000E946A0C6AEC71E080EB95E00E94500345
:1028000068EB7BE080E090E00E94780E0E94620C12
:10281000609113048AE390E00E94500868EB7BE02B
:1028200080E090E00E94780E0E94620C8091130478
:1028300090911404019709F0A0C20E948E05609344
:1028400033047093340480933504909336040091DC
:102850002F0410913004209131043091320460171C
:1028600071078207930761F060932F04709330041F
:1028700080933104909332040E94C4080E947C0C1F
:1028800020910B0430910C04A9014D7F8091090423
:1028900090910A044130510579F02530310561F0FD
:1028A000B901675071096230710530F02A30310585
:1028B00019F02C30310541F49C012D5F3F4F20323F
:1028C0003105CCF04C971DC04430510519F049300A
:1028D000510541F49C012D5F3F4F2F3131055CF0D4
:1028E0004B970FC02230310581F49C012D5F3F4F83
:1028F0002D3131052CF43093200420931F0405C0A2
:1029000049979093200480931F0420911F043091D5
:1029100020048091090490910A042817390709F4CA
:1029200055C160E080E10E946C0D60E082E00E9491
:102930006C0D0E948E056093330470933404809371
:1029400035049093360400912F04109130042091A7
:10295000310430913204601771078207930761F0E8
:1029600060932F0470933004809331049093320469
:102970000E94C4080E947C0C809190049091910464
:1029800097FF04C05092910440929004809190046B
:10299000909191040E94B20EE0909404F0909504FE
:1029A000F0922E04E0922D04009192041091930471
:1029B00010932C0400932B04C0910704D0910804B9
:1029C000CE15DF0544F460E08EE00E946C0D60E0FF
:1029D00084E00E946C0D8091250490912604C81B10
:1029E000D90BEC16FD0644F461E08EE00E946C0DFC
:1029F00061E084E00E946C0D8091050490910604D2
:102A00008017910794F460E083E00E946C0D60E011
:102A10008FE00E946C0D61E085E00E946A0C6FE619
:102A200071E080EB95E00E94500380910504909145
:102A300006042091250430912604821B930B2091DB
:102A40002B0430912C0428173907B4F461E083E09B
:102A50000E946C0D61E08FE00E946C0D61E080E0EF
:102A60000E946A0C61E085E00E946A0C67E472E0F3
:102A700080EB95E00E94500361E080E00E946A0CC8
:102A80006BED71E080EB95E00E94500380911F0494
:102A9000909120040A9734F463E771E080EB95E0AD
:102AA0000E94500360911F047091200480EB95E018
:102AB0000E949D0C62EE71E080EB95E00E94500355
:102AC00060912D0470912E0480EB95E00E949D0C86
:102AD00065EE71E080EB95E00E94500360912B045D
:102AE00070912C0480EB95E00E949D0C86E00E9482
:102AF000430D019709F009CF85E00E94430D01972E
:102B000009F003CF10921C0410921B0410921A04B7
:102B100010921904109218041092170410921604BF
:102B200010921504109214041092130460E08AE3CA
:102B300090E00E9450086091190489E390E00E949F
:102B400050086091170484E390E00E94500860915F
:102B5000150483E390E00E94500860911B0488E311
:102B600090E00E94500860E08EE00E946C0D60E0F2
:102B70008FE00E946C0D60E080E10E946C0D60E0CF
:102B800084E00E946C0D60E083E00E946C0D60E0C8
:102B900082E00E946C0D60E080E00E946A0C62E7B7
:102BA00073E080EB95E00E94500361E080E00E94BA
:102BB0006A0C63E873E080EB95E00E94500364ECDC
:102BC00079E080E090E00E94780E95CB10921C0492
:102BD00010921B0410921A041092190410921804F7
:102BE00010921704109216041092150410921404F7
:102BF0001092130460E08AE390E00E945008609114
:102C0000190489E390E00E9450086091170484E35E
:102C100090E00E9450086091150483E390E00E94C8
:102C2000500860911B0488E390E00E94500860E027
:102C30008EE00E946C0D60E08FE00E946C0D60E001
:102C400080E10E946C0D60E084E00E946C0D60E009
:102C500083E00E946C0D60E082E00E946C0D60E0F9
:102C600080E00E946A0C68EE71E080EB95E00E94C3
:102C7000500361E080E00E946A0C69EF71E080EB34
:102C800095E00E94500368EE73E080E090E00E94BF
:102C9000780E60E080E00E946A0C6AE072E080EBEF
:102CA00095E00E94500361E080E00E946A0C6BE1B5
:102CB00072E080EB95E00E94500368EE73E080E0E4
:102CC00090E00E94780E86E00E94430D019739F64D
:102CD00085E00E94430D019711F60E94620C0BCB18
:102CE000C0903304D0903404E0903504F090360462
:102CF000C701B6010E942C088091FB0390E09093DD
:102D00000C0480930B04C701B6010E942C0880912B
:102D1000FA0390E090930A0480930904C701B60176
:102D20000E942C088091F80390E090930E04809309
:102D30000D04C701B6010E942C088091F70390E0B2
:102D40009093020480930104C701B6010E942C08ED
:102D50008091F60390E0909300048093FF0386E057
:102D60000E94430D019789F085E00E94430D019771
:102D7000D9F00E94B90A0E94D60B80910304909169
:102D80000404019709F4ACCF33C08091FD03909106
:102D9000FE0301969093FE038093FD0386E00E945C
:102DA000430D0197D9F3E0CF8091FD039091FE038D
:102DB0000197863E27E0920714F486EE97E0909301
:102DC000FE038093FD0385E00E94430D0197D9F334
:102DD000D0CF86E00E94430D019789F085E00E94E4
:102DE000430D81309105F9F00E94B90A0E94D60B7B
:102DF0008091030490910404029759F33BC08091A1
:102E00000B0490910C0401968D30910514F08CE028
:102E100090E090930C0480930B0486E00E94430D95
:102E20000197D9F3DBCF20910B0430910C04215092
:102E30003109121613062CF430930C0420930B0462
:102E400004C090930C0480930B0485E00E94430D12
:102E50000197D9F3C9CF86E00E94430D019789F00D
:102E600085E00E94430D81309105F9F00E94B90A76
:102E70000E94D60B8091030490910404039759F3A8
:102E80003AC08091090490910A040196803291051C
:102E900014F08FE190E090930A048093090486E097
:102EA0000E94430D0197D9F3DBCF209109043091A3
:102EB0000A0421503109121613062CF430930A0427
:102EC0002093090404C090930A048093090485E0C8
:102ED0000E94430D0197D9F3C9CF86E00E94430DAC
:102EE000019781F085E00E94430D0197F9F00E945F
:102EF000B90A0E94D60B80910304909104040497B0
:102F000061F338C080910D0490910E0401968831D0
:102F1000910514F087E190E090930E0480930D04E6
:102F200086E00E94430D0197D9F3DCCF80910D0418
:102F300090910E04019797FD05C090930E04809325
:102F40000D0404C010920E0410920D0485E00E943E
:102F5000430D0197D9F3CBCF86E00E94430D019733
:102F600081F085E00E94430D0197F9F00E94B90AB3
:102F70000E94D60B8091030490910404059761F39D
:102F800067C0809101049091020401968C339105F1
:102F900014F08BE390E0909302048093010486E0A8
:102FA0000E94430D0197D9F3DCCF809101049091E9
:102FB0000204019797FD05C09093020480930104D9
:102FC00004C0109202041092010485E00E94430D97
:102FD0000197D9F3CBCF86E00E94430D019709F406
:102FE0003FC085E00E94430D8130910509F455C032
:102FF00060E080E00E946A0C6CE272E080EB95E099
:103000000E94500380912104909122040A9734F485
:1030100063E771E080EB95E00E945003609121042A
:103020007091220480EB95E00E949D0C6EEA73E0A3
:1030300080EB95E00E94500361E080E00E946A0C02
:1030400068E372E080EB95E00E9450030E94D60B8B
:103050008091030490910404069709F4BCCF3BC00F
:10306000809121049091220401968B3091052CF4DB
:10307000909322048093210404C0109222041092A1
:10308000210486E00E94430D0197D9F36091210449
:1030900083E490E00E945008A4CF20912104309155
:1030A000220421503109121613062CF43093220405
:1030B0002093210404C0909322048093210485E08E
:1030C0000E94430D0197D9F36091210483E490E0BD
:1030D0000E9450088DCF25E2622E712C34E2832E9F
:1030E000912CCCE3D0E00BE410E042E1E42EF12C93
:1030F000CC24C394D12C63E0A62EB12C8091030480
:1031000090910404079709F078C160E080E00E9484
:103110006A0C69E472E080EB95E00E94500361E084
:1031200080E00E946A0C6AE572E080EB95E00E9404
:10313000500386E00E94430D019731F085E00E9424
:10314000430D019709F056C1709212046092110468
:103150009092080480920704D0931004C0930F0447
:103160001093060400930504F0921E04E0921D04DF
:1031700080910B0490910C049C012D7F213031052E
:1031800009F457C68530910509F453C6AC01475080
:1031900051094230510508F44CC68A30910509F4B2
:1031A00048C68C30910509F444C62430310509F431
:1031B00051C62930310509F44DC68230910509F414
:1031C0005FC660E080E00E946A0C6BE672E080EB14
:1031D00095E00E94500361E080E00E946A0C6CE779
:1031E00072E080EB95E00E94500360ED77E080E0B4
:1031F00090E00E94780E60E080E00E946A0C6DE82A
:1032000072E080EB95E00E94500361E080E00E9454
:103210006A0C60911D0470911E0480EB95E00E9481
:103220009D0C6EE972E080EB95E00E945003809166
:103230001704909118040A9734F463E771E080EB67
:1032400095E00E945003609117047091180480EB80
:1032500095E00E949D0C6EE973E080EB95E00E9482
:10326000500380911504909116040A9734F463E793
:1032700071E080EB95E00E9450036091150470911D
:10328000160480EB95E00E949D0C68EB7BE080E0EB
:1032900090E00E94780E60E080E00E946A0C68EA8C
:1032A00072E080EB95E00E945003609111047091F0
:1032B000120480EB95E00E949D0C60EB72E080EBC5
:1032C00095E00E94500361E080E00E946A0C68EB88
:1032D00072E080EB95E00E945003609107047091CA
:1032E000080480EB95E00E949D0C60EB72E080EB9F
:1032F00095E00E94500360ED77E080E090E00E944E
:10330000780E60E080E00E946A0C60EC72E080EB76
:1033100095E00E94500360910F047091100480EBBF
:1033200095E00E949D0C68EC72E080EB95E00E94B5
:10333000500361E080E00E946A0C61ED72E080EB76
:1033400095E00E945003609105047091060480EBA3
:1033500095E00E949D0C68EC72E080EB95E00E9485
:10336000500360ED77E080E090E00E94780E60E02E
:1033700080E00E946A0C69ED72E080EB95E00E94AB
:10338000500361E080E00E946A0C6AEE72E080EB1C
:1033900095E00E94500368EE73E080E090E00E94A8
:1033A000780E60E080E00E946A0C6BEF72E080EBC8
:1033B00095E00E94500361E080E00E946A0C68E39F
:1033C00072E080EB95E00E945003D0921A04C09204
:1033D000190461E089E390E00E94500860ED77E015
:1033E00080E090E00E94780E109204041092030492
:1033F0000E9478080E94D60B81CEF5E26F2E712CC8
:10340000A4E28A2E912CCCE3D0E00BE410E0BFE0E4
:10341000EB2EF12CCC24C394D12C93E0A92EB12C0B
:103420008091030490910404089709F078C160E04A
:1034300080E00E946A0C69E472E080EB95E00E94F3
:10344000500361E080E00E946A0C6CE073E080EB66
:1034500095E00E94500386E00E94430D019731F0F1
:1034600085E00E94430D019709F056C17092120445
:10347000609211049092080480920704D093100483
:10348000C0930F041093060400930504F0921E04E9
:10349000E0921D0480910B0490910C049C012D7FFF
:1034A0002130310509F40AC58530910509F406C5B6
:1034B000AC01475051094230510508F4FFC48A302D
:1034C000910509F4FBC48C30910509F4F7C424304C
:1034D000310509F404C52930310509F400C58230ED
:1034E000910509F412C560E080E00E946A0C6DE16C
:1034F00073E080EB95E00E94500361E080E00E9461
:103500006A0C6CE772E080EB95E00E94500360ED7E
:1035100077E080E090E00E94780E60E080E00E941A
:103520006A0C6DE872E080EB95E00E94500361E068
:1035300080E00E946A0C60911D0470911E0480EB73
:1035400095E00E949D0C6EE972E080EB95E00E9490
:10355000500380911704909118040A9734F463E79C
:1035600071E080EB95E00E94500360911704709128
:10357000180480EB95E00E949D0C6EE973E080EBEF
:1035800095E00E94500380911504909116040A97CB
:1035900034F463E771E080EB95E00E9450036091A2
:1035A00015047091160480EB95E00E949D0C68EB69
:1035B0007BE080E090E00E94780E60E080E00E9476
:1035C0006A0C68EA72E080EB95E00E94500360911B
:1035D00011047091120480EB95E00E949D0C60EB49
:1035E00072E080EB95E00E94500361E080E00E9471
:1035F0006A0C68EB72E080EB95E00E9450036091EA
:1036000007047091080480EB95E00E949D0C60EB2C
:1036100072E080EB95E00E94500360ED77E080E07F
:1036200090E00E94780E60E080E00E946A0C60ECFE
:1036300072E080EB95E00E94500360910F0470915E
:10364000100480EB95E00E949D0C68EC72E080EB2A
:1036500095E00E94500361E080E00E946A0C61EDF9
:1036600072E080EB95E00E94500360910504709138
:10367000060480EB95E00E949D0C68EC72E080EB04
:1036800095E00E94500360ED77E080E090E00E94BA
:10369000780E60E080E00E946A0C69ED72E080EBD9
:1036A00095E00E94500361E080E00E946A0C6AEE9F
:1036B00072E080EB95E00E94500368EE73E080E0DA
:1036C00090E00E94780E60E080E00E946A0C6BEF50
:1036D00072E080EB95E00E94500361E080E00E9480
:1036E0006A0C68E372E080EB95E00E945003D09290
:1036F0001A04C092190461E089E390E00E94500826
:1037000060ED77E080E090E00E94780E1092040473
:10371000109203040E9478080E94D60B81CEC5E265
:10372000D0E057E3852E912C0BE410E06EE1E62EFD
:10373000F12CCC24C394D12CE3E0AE2EB12C80919B
:10374000030490910404099709F078C160E080E0D7
:103750000E946A0C69E472E080EB95E00E945003DD
:1037600061E080E00E946A0C6EE273E080EB95E01D
:103770000E94500386E00E94430D019731F085E0DE
:103780000E94430D019709F056C1D0931204C093D3
:103790001104D0930804C0930704909210048092FF
:1037A0000F041093060400930504F0921E04E092A7
:1037B0001D0480910B0490910C049C012D7F2130FD
:1037C000310509F4C0C38530910509F4BCC3AC01CF
:1037D000475051094230510508F4B5C38A3091056C
:1037E00009F4B1C38C30910509F4ADC3243031051F
:1037F00009F4D4C32930310509F4D0C382309105CE
:1038000009F4FAC360E080E00E946A0C6FE373E0A1
:1038100080EB95E00E94500361E080E00E946A0C1A
:103820006CE772E080EB95E00E94500360ED77E07A
:1038300080E090E00E94780E60E080E00E946A0CD8
:103840006DE872E080EB95E00E94500361E080E05B
:103850000E946A0C60911D0470911E0480EB95E03B
:103860000E949D0C6EE972E080EB95E00E9450038F
:1038700080911704909118040A9734F463E771E07B
:1038800080EB95E00E94500360911704709118043A
:1038900080EB95E00E949D0C6EE973E080EB95E073
:1038A0000E94500380911504909116040A9734F4F5
:1038B00063E771E080EB95E00E945003609115048E
:1038C0007091160480EB95E00E949D0C68EB7BE004
:1038D00080E090E00E94780E60E080E00E946A0C38
:1038E00068EA72E080EB95E00E9450036091110459
:1038F0007091120480EB95E00E949D0C60EB72E0E9
:1039000080EB95E00E94500361E080E00E946A0C29
:1039100068EB72E080EB95E00E9450036091070431
:103920007091080480EB95E00E949D0C60EB72E0C2
:1039300080EB95E00E94500360ED77E080E090E03E
:103940000E94780E60E080E00E946A0C60EC72E0F9
:1039500080EB95E00E94500360910F047091100479
:1039600080EB95E00E949D0C68EC72E080EB95E0A6
:103970000E94500361E080E00E946A0C61ED72E0F9
:1039800080EB95E00E94500360910504709106045D
:1039900080EB95E00E949D0C68EC72E080EB95E076
:1039A0000E94500360ED77E080E090E00E94780E86
:1039B00060E080E00E946A0C69ED72E080EB95E0C7
:1039C0000E94500361E080E00E946A0C6AEE72E09F
:1039D00080EB95E00E94500368EE73E080E090E099
:1039E0000E94780E60E080E00E946A0C6BEF72E04B
:1039F00080EB95E00E94500361E080E00E946A0C39
:103A000068E372E080EB95E00E945003D0921A04C4
:103A1000C092190461E089E390E00E94500860EDD3
:103A200077E080E090E00E94780E109204041092FB
:103A300003040E9478080E94D60B81CE85E2682E8E
:103A4000712C94E2892E912CCFE3D0E000E510E0B8
:103A50002AE1E22EF12CCC24C394D12C43E0A42EF5
:103A6000B12C80910304909104040A9709F078C165
:103A700060E080E00E946A0C69E472E080EB95E00F
:103A80000E94500361E080E00E946A0C60E573E0F0
:103A900080EB95E00E94500386E00E94430D019761
:103AA00031F085E00E94430D019709F056C17092F4
:103AB0001204609211049092080480920704D0933B
:103AC0001004C0930F041093060400930504F092B1
:103AD0001E04E0921D0480910B0490910C049C0143
:103AE0002D7F2130310509F4B8C28530910509F4E4
:103AF000B4C2AC01475051094230510508F4ADC27F
:103B00008A30910509F4A9C28C30910509F4A5C247
:103B10002430310509F4C4C22930310509F4C0C28A
:103B20008230910509F4DFC260E080E00E946A0CF7
:103B300061E673E080EB95E00E94500361E080E075
:103B40000E946A0C6CE772E080EB95E00E945003E3
:103B500060ED77E080E090E00E94780E60E080E029
:103B60000E946A0C6DE872E080EB95E00E945003C1
:103B700061E080E00E946A0C60911D0470911E0457
:103B800080EB95E00E949D0C6EE972E080EB95E081
:103B90000E94500380911704909118040A9734F4FE
:103BA00063E771E080EB95E00E9450036091170499
:103BB0007091180480EB95E00E949D0C6EE973E013
:103BC00080EB95E00E9450038091150490911604BB
:103BD0000A9734F463E771E080EB95E00E945003AC
:103BE000609115047091160480EB95E00E949D0C85
:103BF00068EB7BE080E090E00E94780E60E080E07F
:103C00000E946A0C68EA72E080EB95E00E94500323
:103C1000609111047091120480EB95E00E949D0C5C
:103C200060EB72E080EB95E00E94500361E080E081
:103C30000E946A0C68EB72E080EB95E00E945003F2
:103C4000609107047091080480EB95E00E949D0C40
:103C500060EB72E080EB95E00E94500360ED77E04E
:103C600080E090E00E94780E60E080E00E946A0CA4
:103C700060EC72E080EB95E00E94500360910F04CD
:103C80007091100480EB95E00E949D0C68EC72E04E
:103C900080EB95E00E94500361E080E00E946A0C96
:103CA00061ED72E080EB95E00E94500360910504A5
:103CB0007091060480EB95E00E949D0C68EC72E028
:103CC00080EB95E00E94500360ED77E080E090E0AB
:103CD0000E94780E60E080E00E946A0C69ED72E05C
:103CE00080EB95E00E94500361E080E00E946A0C46
:103CF0006AEE72E080EB95E00E94500368EE73E09C
:103D000080E090E00E94780E60E080E00E946A0C03
:103D10006BEF72E080EB95E00E94500361E080E081
:103D20000E946A0C68E372E080EB95E00E94500309
:103D3000D0921A04C092190461E089E390E00E94D5
:103D4000500860ED77E080E090E00E94780E1092DD
:103D50000404109203040E9478080E94D60B81CEBE
:103D60000E94B9010C947B1110921C0410921B0448
:103D700010921A0410921904109218041092170449
:103D80001092160410921504109214041092130449
:103D900060E08AE390E00E9450086091190489E392
:103DA00090E00E9450086091170484E390E00E9424
:103DB00050086091150483E390E00E9450086091E0
:103DC0001B0488E390E00E94500860E08EE00E94AF
:103DD0006C0D60E08FE00E946C0D60E080E10E945D
:103DE0006C0D60E084E00E946C0D60E083E00E9456
:103DF0006C0D60E082E00E946C0D60E080E00E944B
:103E00006A0C62E773E080EB95E00E94500361E08A
:103E100080E00E946A0C63E873E080EB95E00E940A
:103E2000500364EC79E080E090E00E94780E0C94FE
:103E3000DF112091090430910A04A9014E5E5F4F01
:103E400050931804409317044032510594F12D50BB
:103E5000310910C02091090430910A04A9014E5E75
:103E60005F4F50931804409317044F3151050CF1E4
:103E70002C5031093093180420931704019619C06F
:103E80002091090430910A04A9014E5E5F4F5093BE
:103E90001804409317044D3151055CF02A50310944
:103EA0003093180420931704B0921604A0921504BE
:103EB00088C9909316048093150483C9209109043E
:103EC00030910A04A901415F5F4F50931804409359
:103ED00017044032510594F12051310910C020914E
:103EE000090430910A04A901415F5F4F50931804FF
:103EF000409317044F3151050CF12F503109309385
:103F0000180420931704019619C0209109043091D8
:103F10000A04A901415F5F4F5093180440931704AE
:103F20004D3151055CF02D50310930931804209328
:103F30001704B0921604A0921504D5CA90931604E3
:103F400080931504D0CA2091090430910A04A90174
:103F5000425E5F4F5093180440931704403251055E
:103F600074F02150310930931804209317049C01F8
:103F70002F5F3F4F309316042093150404C0909395
:103F800016048093150420911704309118042032F0
:103F900031050CF437CC2F51310928C02091090488
:103FA00030910A04A901425E5F4F50931804409378
:103FB00017044F31510564F030931804209317040F
:103FC0009C012F5F3F4F309316042093150404C0CB
:103FD00090931604809315042091170430911804CF
:103FE0002F3131050CF40ECC2E51310930931804C9
:103FF0002093170401962CC02091090430910A04E3
:10400000A901425E5F4F50931804409317044D314D
:1040100051055CF02E5F3F4F309318042093170436
:10402000B0921604A092150404C0909316048093D5
:10403000150480911704909118048D3191050CF4AA
:10404000E1CB4C97909318048093170483E090E0A1
:104050009093160480931504D5CB209109043091D8
:104060000A04A901465E5F4F509318044093170459
:10407000403251053CF0255031093093180420930B
:1040800017040196909316048093150480911704E9
:1040900090911804803291050CF446CD4F9749C099
:1040A0002091090430910A04A901465E5F4F5093A4
:1040B0001804409317044F3151053CF02450310946
:1040C000309318042093170401969093160480935C
:1040D000150480911704909118048F3191050CF408
:1040E00023CD4E9726C02091090430910A04A901DE
:1040F000465E5F4F50931804409317044D315105AD
:104100005CF0225031093093180420931704B092C8
:104110001604A092150404C090931604809315040D
:1041200080911704909118048D3191050CF4FCCC0A
:104130004C97909318048093170480910B049091EE
:104140000C0401969093160480931504EDCCECEFCB
:10415000F4E01382128288EE93E0A0E0B0E0848362
:104160009583A683B78320E131E03183208325EC5A
:1041700030E03587248724EC30E03787268720EC31
:1041800030E0318B208B21EC30E0338B228B22EC22
:1041900030E0358B248B26EC30E0378B268B118E6C
:1041A000128E138E148EE4EAF5E013821282848359
:1041B0009583A683B78382E291E0918380831092F6
:1041C000A3051092A2051092A1051092A0051092CD
:1041D0009F0581E080939E0510929D0561E082E13C
:1041E0000E946C0D61E083E10E946C0DE9EBF0E050
:1041F00080818E7F808380818D7F808388E480931F
:10420000B80085E48093BC0085EF91E090939C0515
:1042100080939B0586EF91E090939A058093990592
:10422000E0EBF5E01382128284E391E091838083D6
:104230008DE084838FEF85838CE086838BE087839A
:104240008AE0808789E0818788E0828713861486E8
:1042500015861686178681E00C94D70DF999FECF46
:1042600092BD81BDF89A992780B50895262FF999B6
:10427000FECF1FBA92BD81BD20BD0FB6F894FA9A49
:10428000F99A0FBE01960895991B79E004C0991F11
:10429000961708F0961B881F7A95C9F780950895A0
:1042A00097FB072E16F4009407D077FD09D00E94E3
:1042B000A82107FC05D03EF4909581959F4F089565
:1042C000709561957F4F0895A1E21A2EAA1BBB1B22
:1042D000FD010DC0AA1FBB1FEE1FFF1FA217B307D2
:1042E000E407F50720F0A21BB30BE40BF50B661FE8
:1042F000771F881F991F1A9469F7609570958095AC
:1043000090959B01AC01BD01CF010895A29FB00122
:10431000B39FC001A39F700D811D1124911DB29FF9
:10432000700D811D1124911D08950E948621A59F65
:10433000900DB49F900DA49F800D911D11240895A0
:10434000B7FF0C9495210E949521821B930B089531
:10435000AA1BBB1B51E107C0AA1FBB1FA617B707AB
:1043600010F0A61BB70B881F991F5A95A9F78095C7
:104370009095BC01CD010895EE0FFF1F0590F491BB
:10438000E02D099481E090E0F8940C94C721F89412
:02439000FFCF5D
:104392001F1C1F1E1F1E1F1F1E1F1E1F00000000AE
:1043A2004A01B700E10097011201F0000401000088
:1043B2000000500223028002F7011B020702F801EB
:1043C200000000005805B70080027F0220414C50D7
:1043D2004552204B4152415441532020002020316C
:1043E20036303038313139303538202020002053F2
:1043F200495354454D20204B4150414C4920002DFA
:10440200002B00300020202056494C4F52205445AA
:1044120052532020200020202043455652494C4927
:10442200594F522020200020205A414D414E202039
:10443200444F4C44552020002020534F4E2020331F
:10444200202047554E2020200044494E4C454E44E2
:1044520049524D452020202020005A414D414E49CD
:10446200204241534C41444920200043494B494D8D
:10447200280029430020250043494B494D2054413F
:104482004D414D4C414E444900202046495349205C
:1044920043454B494E495A20200056455941202B4D
:1044A2002D204255544F4E554E410020202020428F
:1044B2004153494E495A2020202020003E56495956
:1044C2004F52205A414D3A002A2A2A2A2A2A2A2AB7
:1044D2002A2A2A2A2A2A2A2A0059554D5552544153
:1044E2002020534543494E495A0020202020205481
:1044F2004156554B20202020202000205441565563
:104502004B2020534543494C44492000202A2A2A63
:104512002A2A2A2A2A2A2A2A2A2A2A2000544F50B8
:104522004C414D2047454C2E2053555245002047C3
:10453200554E205A616D2E00494C4B4953493A0061
:104542002044455245434500534F4E4953493A0092
:10455200494C4B4E454D3A0020252020202020205A
:1045620000534F4E4E454D3A004D414B494E45206A
:1045720043414C49534D4159410043414C49534DEC
:104582004159412048415A49522000205649594F29
:104592004C552044555A2059415020002020204299
:1045A200494C44495243494E202020200042494C64
:1045B20044495243494E20534543494C4900202027
:1045C200202020204B415A20202020202020002083
:1045D20020204B415A20534543494C444920200056
:1045E20020202020204F5244454B202020202020F4
:1045F20000204F5244454B20534543494C444920E7
:104602002000535552454320445552445552554C6F
:10461200445500415941524C415220534946495256
:104622004C44490059494C204159415249203A00D1
:104632003C0041592041594152492020202020204C
:104642002020003C200047554E204159415249202C
:104652002020202020200053414154204159415222
:1046620049202020200044414B494B4120415941DF
:0A467200524920202020000D0A000C
:00000001FF
